:020000040800F2
:10000000681B00209D010008AD1B0008611300085B
:10001000A91B0008570B0008DF2A00080000000099
:10002000000000000000000000000000D9210008CE
:10003000E50C000800000000511F0008C92200085C
:10004000B7010008B7010008B7010008B7010008B0
:10005000B7010008B7010008B7010008B7010008A0
:10006000B7010008B7010008B7010008B701000890
:10007000B7010008B7010008B7010008B701000880
:10008000B7010008B7010008B7010008B701000870
:10009000B7010008B7010008B7010008B701000860
:1000A000B7010008B7010008B7010008B701000850
:1000B000B7010008B7010008B7010008B701000840
:1000C000B7010008B7010008B7010008B701000830
:1000D000B701000885270008252800088D2800089A
:1000E000B7010008B7010008B7010008B701000810
:1000F000B7010008B7010008B7010008B701000800
:10010000B7010008B7010008B7010008B7010008EF
:10011000B7010008B7010008A1230008B7010008D3
:10012000B7010008B7010008B7010008B7010008CF
:10013000B7010008B7010008B7010008B7010008BF
:10014000B7010008B7010008B7010008B7010008AF
:10015000B7010008B7010008B7010008B70100089F
:10016000B7010008B7010008B7010008B70100088F
:10017000B7010008B7010008B7010008B70100087F
:10018000B7010008B7010008DFF80CD000F078FBD9
:10019000004800472D3C0008681B002006488047A7
:1001A00006480047FEE7FEE7FEE7FEE7FEE7FEE75C
:1001B000FEE7FEE7FEE7FEE73923000889010008B5
:1001C00040EA01039B0703D009E008C9121F08C0D9
:1001D000042AFAD203E011F8013B00F8013B521E59
:1001E000F9D27047D2B201E000F8012B491EFBD2D0
:1001F00070470022F6E710B513460A460446194632
:10020000FFF7F0FF204610BD30B505462A460B46E5
:1002100012F8010B13F8014B08B1A042F8D01CB141
:10022000002802D06D1CF1E7284630BD10B5044609
:1002300004E00B7800F8013B03B1491C521EF8D2D0
:10024000204610BDCAB2401E10F8011F8A4202D0DB
:100250000029F9D100207047421C10F8011B002929
:10026000FBD1801A704710B5002200E0521C835C5D
:100270008C5CA34201D1002BF8D1D8B2E1B2401A74
:1002800010BD30B505460020034600E05B1C9342DC
:1002900005D2EC5CC85C201A01D1002CF6D130BD2F
:1002A0002DE9FE4F804681EA0300C00F0C46009006
:1002B00021F0004123F00045B8EB0200A94105D22E
:1002C0004046214690461C460B46024623F000401D
:1002D000104347D0270DC7F30A00C3F30A51029019
:1002E000401A019040286BDAC3F3130040F4801BDE
:1002F0000098924620B10023D2EB030A63EB0B0B6C
:1003000001985946C0F14002504600F0D4F9064623
:100310000D4650465946019A00F0DCF910EB0800F2
:100320006141002487EA115284EAE7731A4340D0FE
:10033000009A62B3019A012A4FEA075215DC001BAA
:1003400061EB02014FF0004202EA0752CDE90042A0
:10035000001C41F5801132462B4600F013FA03B021
:10036000BDE8F08F40462146F9E7001B61EB020132
:10037000001C41F5801300185B412018A2F50017FE
:1003800047EB030140EAD570B6196D4111E06D08E5
:100390004FEA360645EAC0754FEA0752001B61EB8B
:1003A0000201001C41F5801149084FEA3000001994
:1003B000514132462B4603B0BDE8F04F00F0D3B9AF
:1003C0000098012240000023D0EB020263EBE073AF
:1003D000009821464FEAE074B8EB000061EB04019D
:1003E000E9E783F000435BE781F0004158E72DE93E
:1003F000FE4F81EA030404F0004421F00041009420
:100400004FF0000B23F0004350EA01045ED052EAA3
:1004100003045BD0C3F30A54C1F30A552C44A4F27D
:10042000F3340194A0FB0254C1F3130141F4801191
:10043000C3F3130343F4801301FB024400FB034E98
:10044000840A970A44EA815447EA8357A4FB076861
:1004500002958D0A05FB07854FEA932C04FB0C548B
:100460002705029D4FEA065847EA1637B5EB0805FF
:100470006EEB070C870E920E47EA811742EA831251
:10048000A7FB0201B6EB0B0164EB00042B0D43EA62
:100490000C335E1844EB1C50DA465146E7FB020170
:1004A000C5F313044FEA0B3343EA14534FEA043203
:1004B000019C43EA0603A4F10C040294009CCDE9DC
:1004C00000B400F05FF903B0BDE8F08F00200146F2
:1004D000F9E72DE9F04D81EA030404F0004B21F027
:1004E000004514464FF0000A23F0004150EA05028F
:1004F00020D054EA01021DD0C5F30A570246C5F3C5
:100500001303C1F31300C1F30A5640F4801543F4FA
:100510008013A7EB0608101BD64608F2FD3873EBD4
:10052000050002D308F1010801E092185B41B8F11F
:10053000000F03DA00200146BDE8F08D00204FF4E3
:100540008011064684460EE0171B73EB050705D3A2
:10055000121B63EB050306434CEA010C49084FEA02
:10056000300092185B4150EA0107EDD152EA0300D6
:1005700012D082EA040083EA0501084305D0101B6B
:10058000AB4106D20122002306E000224FF00043D7
:1005900002E06FF0010253101AEB06004CEB085119
:1005A00010EB0A0041EB0B01BDE8F04D00F0DBB8A9
:1005B0000EB540F2334102910021CDE900110A4607
:1005C0000B4600F0DFF803B000BD00F0004230F051
:1005D00000400AD0C10D01F56071C0F3160042EA77
:1005E0000151C2084007114370470020014670477F
:1005F00001F0004330B421F0004150EA010206D07E
:100600000A0DA2F56072C1F31301002A02DC30BCAE
:1006100000207047440F44EAC104C100E01830BC18
:1006200000EBC25000F068B830B50B460146002020
:100630002022012409E021FA02F59D4205D303FAA4
:1006400002F5491B04FA02F52844151EA2F1010225
:10065000F1DC30BD2DE9F05F0546002092469B4657
:1006600088460646814640241BE0284641464746C8
:10067000224600F017F953465A46C01A914110D34A
:1006800011461846224600F016F82D1A67EB0108AD
:100690004F4622460120002100F00DF817EB00091B
:1006A0004E41201EA4F10104DFDC484631462A46B3
:1006B0004346BDE8F09F202A04DB203A00FA02F10D
:1006C000002070479140C2F1200320FA03F3194340
:1006D00090407047202A06DBCB17203A41FA02F0FF
:1006E00043EAE07306E041FA02F3D040C2F120028F
:1006F00091400843194670470029A8BF7047401C25
:10070000490008BF20F00100704710B4B0FA80FC27
:1007100000FA0CF050EA010404BF10BC704749B164
:10072000CCF1200421FA04F411FA0CF118BF0121D4
:1007300021430843A3EB0C01CB1D4FEA00614FEAB4
:10074000102042BF002010BC704700EBC350104483
:100750000029A4BF10BC7047401C490008BF20F00E
:10076000010010BC704710B5141E73F1000408DAC4
:10077000401C41F1000192185B411A4301D120F065
:10078000010010BD2DE9F04D92469B4611B1B1FA22
:1007900081F202E0B0FA80F220329046FFF78BFF40
:1007A00004460F4640EA0A0041EA0B0153465A4606
:1007B000084313D0114653EA010019D0C8F1400292
:1007C000504600F06FF805460E46504659464246E0
:1007D000FFF771FF084305D0012004E020463946A9
:1007E000BDE8F08D0020054346EAE0762C43374310
:1007F0000A986305E40AA0EB08000022FD0A44EA17
:1008000047540A3002D500200146E9E701051019D6
:100810006941DDE9084500196941BDE8F04DA2E7ED
:10082000C1F30A52C1F3130140F2FF3341F48011C6
:100830009A4202DA00200146704740F233439A425E
:10084000A2F2334202DC524200F02CB8FFF733BF71
:1008500030B5041E71F1000404DB4FF00044404247
:1008600064EB0101141E73F1000405DB1C464FF01C
:100870000043524263EB0403994208BF904230BDEB
:10088000064C074D06E0E06840F0010394E80700DD
:1008900098471034AC42F6D3FFF77AFCD4670008CF
:1008A000F4670008202A04DB203A21FA02F0002134
:1008B000704721FA02F3D040C2F120029140084370
:1008C0001946704700B58DB00121880201F062FB26
:1008D0000121202001F03EFB80200B9003208DF8A9
:1008E000300000208DF833000BA9104800F046FCC2
:1008F000002001908DF808008DF809000590012076
:100900008DF8180001A90A4800F05CF80020079053
:100910000A9009904FF48030089007A800F016F86C
:100920000121034800F006F80DB000BD001402409C
:100930000022014021B1826842F00102826003E09E
:10094000826822F001028260704700000021084A9C
:100950001168084A1140D0E900231A4383681A43FA
:10096000C3681A431143044AC2F8041370470000D5
:1009700004230140E030FCFF0020014010B50A468E
:1009800000210023416821F46041531E41EA4331B4
:10099000416010BD21B1426842F40062426003E050
:1009A000426822F40062426070470146C86C80B21F
:1009B00070470246002013680B400BB1012000E095
:1009C0000020704730B50246002000235068104CCC
:1009D00020400D790C6844EA05242043506090685B
:1009E0000C4C2040D1E903542C438D682C434D79A5
:1009F00044EA450420439060D06A20F470000C7DE6
:100A0000641EE4B2234340EA0350D06230BD0000CC
:100A1000FFFEFFFCFDF7FFC010B51B480078012862
:100A200016D01A480078E82812DB00F001F91848BF
:100A300000F05AF9164800F057F9154800F054F93B
:100A4000134800F051F900F0FBF801200E4908703E
:100A50000D480078022816D00C480078072812DCD0
:100A600000F0DEF80A4800F03FF9094800F03CF9D0
:100A7000074800F039F9064800F036F900F0E0F8D0
:100A800002200149087010BD0C0000202400002045
:100A900020A10700F0B504460D4600200021092DD5
:100AA00011DDE068A5F10A0606EB4607072606FAFF
:100AB00007F18843A5F10A0606EB460603FA06F19C
:100AC0000843E0600CE0206905EB4507072606FABD
:100AD00007F1884305EB450603FA06F10843206158
:100AE000072A0FDA606B561E06EB86071F2606FAEA
:100AF00007F18843561E06EB860605FA06F1084301
:100B0000606322E00D2A0FDA206BD61F06EB860702
:100B10001F2606FA07F18843D61F06EB860605FA5C
:100B200006F10843206310E0E06AA2F10D0606EB2F
:100B300086071F2606FA07F18843A2F10D0606EB89
:100B4000860605FA06F10843E062F0BD816841F0CF
:100B500080418160704700BFFEE700001CB50121A5
:100B6000022001F0F7F94020009000208DF80400E9
:100B70008DF807006946024800F000FB1CBD00002C
:100B8000000402401CB50121102001F0E3F94020CF
:100B9000009000208DF804008DF807006946024897
:100BA00000F0ECFA1CBD0000001002401CB5012151
:100BB000402001F0CFF94FF40070009001208DF833
:100BC000040002208DF805006946024800F0D6FABC
:100BD0001CBD0000001802401CB54FF400700090CE
:100BE00000208DF8040002208DF8050069460248B7
:100BF00000F0C4FA1CBD0000001802401CB54FF400
:100C00000070009001208DF8040002208DF805008E
:100C10006946024800F0B2FA1CBD0000001802400C
:100C200010B5FA21014801F04AFC10BD0004004053
:100C300010B53221014801F042FC10BD0004004013
:100C400010B59621014801F03AFC10BD00040040A7
:100C500010B52048006801281BD040211E4800F034
:100C6000F8FA012815D1FFF7E3FF1C4800F03CF823
:100C70001A4800F039F8194800F036F8174800F023
:100C800033F8FFF7DDFF0120124908600020144906
:100C900008601348006801281AD040210E4800F06F
:100CA000D8FAA8B9FFF7BCFF0C4800F01DF80B48B4
:100CB00000F01AF8094800F017F8084800F014F896
:100CC000FFF7BEFF002003490860012004490860C7
:100CD00010BD0000100000200004024020A1070009
:100CE000140000207047000001B504490098086016
:100CF00000BF024800680028FBD108BD4C0000205E
:100D000010B50EA001F02AFF02E00F48FFF7ECFF3C
:100D10000EA1104800F09CF90028F6D100F078F9F7
:100D20000DA001F01BFF02E00748FFF7DDFF0DA15A
:100D30000DA000F08DF90028F6D110BD41542B43D1
:100D4000495053544152540020A10700434F4E4E86
:100D5000454354000866000841542B43495053450D
:100D60004E4400003E00000041542B43495053457F
:100D70004E440D0A0000000010B502E00448FFF7E1
:100D8000B3FF04A104A000F063F90028F6D110BD60
:100D900020A10700000000002B2B2B0010B500F055
:100DA00097F900BF4FA150A000F052F90028F9D1E7
:100DB0004E48FFF799FF4EA001F0D0FE00BF4EA1B4
:100DC0004EA000F045F90028F9D14848FFF78CFF04
:100DD0004CA001F0C3FE00BF42A14DA000F038F9C5
:100DE0000028F9D14148FFF77FFF4CA001F0B6FE83
:100DF0004FA001F0B3FE02E05148FFF775FF3EA19E
:100E000050A000F025F90028F6D153A001F0A6FE6D
:100E100002E04B48FFF768FF37A152A000F018F935
:100E20000028F6D158A001F099FEFFF769FF5EA0F7
:100E300001F094FE00BF00F04BF900F0BDFB2B4821
:100E4000FFF752FF61480078202809D15F484078B9
:100E5000022805D15EA001F081FE002064490870DF
:100E6000634800780028E6D101206149087000BF7E
:100E700000F02EF900F090FD1C48FFF735FF5348B5
:100E8000007890280DD151484078032809D14F4867
:100E9000807830B94D48C078012802D14B4800799C
:100EA00090B14A480078902814D1484840780328E7
:100EB00010D14648807868B94448C078012809D1E3
:100EC00042480079012805D14AA001F047FE0020E0
:100ED00047490870464800780028C9D10120444994
:100EE000087010BD000000002B2B2B0020A1070074
:100EF0004154200D0A0000004F4B000041540D0AE0
:100F00000000000041542B525354200D0A000000F1
:100F100041542B5253540D0A0000000045535038E1
:100F200032363620496E6974204F4B0D0A0000009E
:100F300041542B43574D4F44455F4355520D0A00D2
:100F4000C0C62D0041542B43574D4F44455F435578
:100F5000523D310D0A00000041542B43574A415085
:100F60000D0A000041542B43574A41503D226B79F2
:100F7000726965222C2235313532327A7A776C7774
:100F80006C6262220D0A000045535038323636201A
:100F9000C1ACBDD357494649B3C9B9A6A3A1A3A1C2
:100FA000A3A10D0A00000000455350383236362008
:100FB000C1ACBDD3D4C6B7FECEF1C6F7B3C9B9A68E
:100FC000A3A1A3A1A3A10D0A00000000640D0020AD
:100FD000B5C7C2BCD4C6B7FECEF1C6F7B5C44D5135
:100FE0005454B3C9B9A6A3A1A3A1A3A10D0A00009B
:100FF0005A000020B6A9D4C44D515454D6F7CCE2BF
:10100000B3C9B9A6A3A1A3A1A3A10D0A0000000022
:1010100010B54FF400710748FFF7EBF802E00648FF
:10102000FFF762FE05A106A000F012F80028F6D135
:1010300010BD0000640B002020A107004F4B0000F2
:1010400041542B4349504D4F44453D310D0A00005A
:1010500070B504460D46C82600F03AF821460D4802
:1010600001F066FD0FE000F019F840B929460A4882
:10107000FFF7CAF818B100F02BF8002070BD42F25B
:101080001070FFF731FE301EA6F10101CEB2EAD199
:101090000120F3E700480040640D00200A48007872
:1010A00008B9012070470848007808490978884243
:1010B00003D1002004490870F4E70348007803498D
:1010C00008700120EEE700005100002052000020CF
:1010D00010B54FF480710848FFF78BF84FF400719A
:1010E0000648FFF786F84FF400710548FFF781F8CE
:1010F00000200449087010BD640A0020640B002021
:10110000640D00205100002010B501220521134874
:1011100000F0FCF8124880ED000A90ED000ADFEDC7
:10112000110A20EE200AD0ED000AB1EE041A71EE89
:10113000600A80EE201A0C4880ED001A90ED000A3B
:1011400000F098F8094908700846017808A001F0F5
:1011500005FDFFF761FC0548007810BD0022014045
:101160002000002000401C461C000020240000201D
:10117000B9E2C7BFCEAA25640D0A0000F0B50A4641
:1011800000210023002400BF3DE0012505FA01F302
:10119000156805EA03049C4234D105684F00032614
:1011A000BE40B543056015794E00B540066835432D
:1011B00005601579012D02D01579022D16D18568AB
:1011C0004F000326BE40B543856055794E00B540BB
:1011D000866835438560456801268E40B543456085
:1011E000456896798E40B6B235434560C5684F0074
:1011F0000326BE40B543C560D5794E00B540C668EC
:101200003543C560491C1029BFD3F0BDF0B500239C
:1012100000244D07ED0E02FA05F3CE1000F1200573
:1012200055F826504E07F70E0F26BE40B543CF1097
:1012300000F1200646F82750CE1000F1200555F8A1
:10124000265045EA0304CE1000F1200545F826405B
:10125000F0BD0246002013690B400BB1012000E0F5
:1012600000207047418370470183704742694A40BC
:10127000426170470021002000BF1BE0DFED100A33
:10128000B4EEE00AF1EE10FA02D24FF47A7014E0F4
:101290000C4A32F8212000EE902AF8EE600AF4EEB3
:1012A000C00AF1EE10FA04D2064A02EB810250881D
:1012B00003E0491CB1F58C7FE0DD00BF7047000002
:1012C00000001B44B860000870B504460D460723B3
:1012D000012229462046FFF7DDFB01210A48FFF7DE
:1012E0004DFB01210848FFF755FB2046FFF72EFC78
:1012F00000BF02212046FFF75CFB0028F9D0204602
:10130000FFF753FB70BD00000022014070B52DEDCA
:10131000068B04460D46164629462046FFF7D4FFA5
:1013200008EE100AB8EE480A10EE100AFFF74DF961
:1013300041EC1A0B9FED080B53EC102BFFF757F8FD
:1013400041EC190BFFF754F908EE900AB0EE680A69
:10135000BDEC068B70BD00006666666666664A3F39
:1013600000BFFEE770B502460024002500230020E0
:10137000958A138B1B0445EA030626F07F4404EA92
:1013800001068E4201D1012000E0002070BD21B194
:10139000028842F00102028004E002884FF6FE73E8
:1013A0001A400280704721B1028842F480720280A4
:1013B00004E002884FF6FF631A400280704721B1B3
:1013C000028842F40072028004E002884FF6FF5364
:1013D0001A400280704700002DE9FF4704460D4681
:1013E0000026B1460427DFF8CC80A6884FF6C070EF
:1013F0000640684600F0DEFDDDF808802E48B8FBA8
:10140000F0F01FFA80F946EA0906A68020884FF618
:10141000FE710840208000262849286888420CD8A0
:1014200028684000B8FBF0F087B2042F00DA0427E8
:101430003E4309F10100208427E0E8884BF6FF7164
:10144000884206D1286800EB4000B8FBF0F087B274
:1014500009E0286800EBC00101EB0010B8FBF0F0D8
:1014600087B247F48047C7F30B0008B947F001077C
:1014700047F4004006434FF4967009FB00F04FF428
:101480007A7190FBF1F0401C2084A683208840F004
:101490000100208026884FF6F5300640A88869892B
:1014A000084306432680A889298908432081BDE88E
:1014B000FF87000000127A0040420F00A086010062
:1014C00012B141F0010101E001F0FE01018270471B
:1014D0000182704741F288310160002181804BF622
:1014E000FF71C1800021018141814FF480418181E0
:1014F000704700001CB50121402000F02BFD3C206E
:10150000009000208DF804008DF80700694602481D
:10151000FFF734FE1CBD0000001802401CB501217D
:10152000402000F017FD46F64000009001208DF8A5
:1015300004008DF8050000208DF8060001208DF8CC
:10154000070069460448FFF719FE46F640010248C5
:10155000FFF78AFE1CBD00000018024010B54021B4
:101560000A48FFF776FE012805D14FF4C04108482C
:10157000FFF77AFE09E040210448FFF76AFE20B930
:101580004FF4C0410248FFF76DFE10BD001002404D
:101590000018024010B50020044908800449088062
:1015A0004FF400710348FEF724FE10BD5C000020DC
:1015B0005E0000206415002070B5FFF7EBFF4D249E
:1015C0001125402604F10C00A91C0144B01C08445C
:1015D00061490880102261490888411C5F4B1980CD
:1015E0005F490A5400BF5C4A1088C21700EB526280
:1015F000D211A0EBC212D1B2574A1088C21700EB29
:101600005262D211544B1A8018460088002801DD1E
:1016100041F08001514A1088421C504B1A80504AB8
:1016200011544D4800880028DDDC00221946088846
:10163000411C19804A490A54042219460888411C51
:10164000198047490A544D2219460888411C1980BF
:1016500043490A54512219460888411C19804049BF
:101660000A54542219460888411C19803C490A54DE
:1016700019460888411C198039490A540422194620
:101680000888411C198036490A54C2221946088824
:10169000411C198032490A54002219460888411C0D
:1016A00019802F490A54642219460888411C198060
:1016B0002B490A54002219460888411C19802849E0
:1016C0000A5419460888411C1A46118024490C54B2
:1016D0001288881822462349FEF772FD1F480088A9
:1016E00020441E49088000220888411C1B4B198099
:1016F0001B490A5419460888411C1A46118018498A
:101700000D54128888182A4617A1FEF759FD134870
:10171000008828441149088000220888411C0F4B8A
:1017200019800F490A5419460888411C1A4611802D
:101730000B490E541288881832461049FEF740FDB6
:101740000648008830440549088008460188044856
:1017500000F016F970BD00005C0000205E00002063
:1017600064150020946600084448543131266B31DA
:101770006F383864756A7858420000005066000877
:1017800010B5FFF707FFE0200449087000204870FB
:101790000221024800F0F4F810BD0000641500209A
:1017A00030B52DED068BADF5057DB0EE408AF0EE3F
:1017B000608AFFF7EFFE302418EE100AFEF705FFEF
:1017C00041EC190B18EE900AFEF7FFFE41EC1A0BE4
:1017D0008DED029B8DED00AB34480278344905A8AD
:1017E00001F0CCF905A8FEF737FDC5B2302231492A
:1017F0000888411C2F4B19802F490A54A01C2844EB
:101800002E49088000BF2D4A1088C21700EB526293
:10181000D211A0EBC212D1B2284A1088C21700EB35
:101820005262D211254B1A8018460088002801DD2B
:1018300041F080011F4A1088421C1E4B1A801E4A2C
:1018400011541E4800880028DDDC00221946088853
:10185000411C198018490A5419460888411C1A4627
:10186000118015490C5412888818224614A1FEF7DD
:10187000A7FC1048008820440E4908800E490D4AF4
:10188000128888182A4605A9FEF79AFC094800889C
:1018900028440849088008460188074800F070F885
:1018A0000DF5057DBDEC068B30BD00002400002049
:1018B000E46600085E000020641500205C00002043
:1018C0002F7379732F6B316F383864756A7858428B
:1018D0002F44485431312F7468696E672F657665DF
:1018E0006E742F70726F70657274792F706F73746D
:1018F0000000000070B5054617A12846FEF784FCDD
:10190000044616A12846FEF77FFC044614B33A218C
:101910002046FEF797FC0446E4B1641C00E0641C1A
:1019200020782028FBD02078302808D10DA001F0A5
:1019300015F94FF400710E48FEF75BFC0AE02078C1
:10194000312807D10BA001F009F94FF400710848C4
:10195000FEF74FFC002470BD4C454400224C45442A
:10196000220000004C4544B5C4D6B5CEAA300A00CA
:10197000640D00204C4544B5C4D6B5CEAA310A004A
:1019800070B504460D462A462146024801F0A9F8E2
:1019900070BD00000048004010B5FFF7FBFD31248A
:1019A000601D3049088082222F490888411C2E4B37
:1019B00019802E490A5400BF2A4A1088C21700EB2A
:1019C0005262D211A0EBC212D1B2264A1088C217BD
:1019D00000EB5262D211234B1A801846008800286F
:1019E00001DD41F08001204A1088421C1E4B1A8004
:1019F0001E4A11541B4800880028DDDC00221946CD
:101A00000888411C198019490A540122194608887E
:101A1000411C198015490A54002219460888411CA6
:101A2000198012490A5419460888411C1A46118027
:101A30000E490C541288881822460DA1FEF7C0FBEF
:101A40000948008820440849088000220888411C71
:101A5000054B198005490A54184601880348FFF7C9
:101A60008FFF10BD5C0000205E0000206415002088
:101A70002F7379732F6B316F383864756A785842D9
:101A80002F44485431312F7468696E672F73657223
:101A9000766963652F70726F70657274792F7365E4
:101AA0007400000010B5FFF775FD3624201D2D4988
:101AB0000880A2222C490888411C2B4B19802B49F5
:101AC0000A5400BF274A1088C21700EB5262D21195
:101AD000A0EBC212D1B2234A1088C21700EB5262A7
:101AE000D211204B1A8018460088002801DD41F0F1
:101AF00080011D4A1088421C1B4B1A801B4A11543E
:101B0000184800880028DDDC002219460888411C9E
:101B1000198016490A54012219460888411C198067
:101B200012490A54002219460888411C19800F499D
:101B30000A5419460888411C1A4611800B490C5456
:101B40001288881822460AA1FEF73AFB0648008848
:101B5000204405490880084601880448FFF710FF23
:101B600010BD00005C0000205E0000206415002015
:101B70002F7379732F6B316F383864756A785842D8
:101B80002F44485431312F7468696E672F6576652C
:101B90006E742F70726F70657274792F706F7374BA
:101BA0005F7265706C79000000BFFEE7704700004F
:101BB00070B5002100230F22C4781CB3174C246891
:101BC00004F4E064C4F5E064C4F30721C1F1040443
:101BD000E3B20A4144789C40E1B284781440214346
:101BE0000C07210E0E4C05786155047804F01F0592
:101BF0000124AC4005786D11AD0005F1E025C5F874
:101C0000004109E0047804F01F050124AC40054DB3
:101C10000678761145F8264070BD00000CED00E016
:101C200000E400E080E100E070B500240CE0002555
:101C300006E00020074901EBC4114855681CC5B2F5
:101C4000802DF6DB601CC4B2082CF0DB00F004F839
:101C500070BD00006406002010B54022110102484A
:101C600000F0C0F810BD0000640600202DE9F0432C
:101C7000044615469C460B464FEAE17801EB58783E
:101C8000C8F3C707A5F12003DEB2002018E0002248
:101C900012E00D4B03EB061302EBC00813F80830FB
:101CA00007EB0008DFF8249009EBC81804EB0209E1
:101CB00008F80930531CDAB2082AEADB431CD8B210
:101CC0000228E4DBBDE8F0836C4D000864060020C8
:101CD0002DE9F04707460D469046114800EB48199C
:101CE000002416E0002610E006EB041119F801109C
:101CF0002846EA1705EB527204EBE202094B03EBAC
:101D0000C212BB19D154701CC6B2102EECDB601C81
:101D1000C4B2022CE6DBFFF79FFFBDE8F0870000AE
:101D20005C430008640600202DE9F04105460E469C
:101D3000144625E0207800F0800050B92278102366
:101D400031462846FFF792FF05F10800C5B2641C32
:101D50000DE0204601F0EAFD07463A4631462846A6
:101D6000FFF7B6FF05F11000C5B2A41C00BF702D2F
:101D700003DD002506F11000C6B2302E00DD02E0C2
:101D800020780028D6D100BFFFF766FFBDE8F081BC
:101D90002DE9F04106460F4614461D4617E022780D
:101DA0002B4639463046FFF761FF284605EBD071D8
:101DB00006EB6101CEB205EBD5714910C1F180018E
:101DC000B14203DA002607F10800C7B2641C20788C
:101DD000202802DB20787E28E1DDFFF73DFFBDE80B
:101DE000F08100002DE9F04105460E46174601F04E
:101DF000F9FE28B119A000F0B1FEFE20BDE8F08187
:101E0000782001F0C9FE20B11BA000F0A7FEFD2044
:101E1000F4E7384601F0B6FE01F05AFE30B11EA0DC
:101E200000F09CFE01F0FAFE0220E7E700240BE040
:101E3000285D01F0A7FE01F04BFE18B101F0EEFEA7
:101E40000320DBE7601C84B2B442F1DB01F0E6FE64
:101E50001548FEF749FF0020D0E70000777269744B
:101E60006520693263315F737461727428292020A0
:101E70006661696C65640A0077726974652069320D
:101E800063315F7075745F64657661646472206647
:101E900061696C65640A00006D6F6465206572722B
:101EA0006F72200A00000000A086010000B58BB010
:101EB0000121042000F04EF80121022000F05AF820
:101EC000022206212048FFF7A1F902208DF8280000
:101ED00000208DF82A004020099001208DF82B0069
:101EE00003208DF8290009A91748FFF747F90020BA
:101EF000ADF82000ADF81A0040F2CF70079040F224
:101F00004730ADF8180006A9104800F0DBFA602051
:101F1000ADF804000020ADF810000120ADF8060077
:101F20000020039001A9094800F082FA0121074826
:101F300000F061FA0821054800F0B8FA01210348D1
:101F400000F04AFA0BB000BD000802400004004057
:101F50007047000029B1064A12680243044B1A6018
:101F600004E0034A12688243014B1A607047000084
:101F70003038024029B1064A12680243044B1A6005
:101F800004E0034A12688243014B1A607047000064
:101F90004038024029B1064A12680243044B1A60D5
:101FA00004E0034A12688243014B1A607047000044
:101FB00044380240F0B5002100220024022500260A
:101FC0000223324F3F6807F00C0121B1042905D0EC
:101FD000082937D105E02E4F076036E02D4F076006
:101FE00033E02A4F3F1F3F68C7F38056274F3F1FFC
:101FF0003F6807F03F036EB1264FB7FBF3F7DFF8FA
:102000008CC0ACF1040CDCF800C0CCF3881C07FBDE
:102010000CF40CE01E4FB7FBF3F7DFF870C0ACF127
:10202000040CDCF800C0CCF3881C07FB0CF4174F41
:102030003F1F3F68C7F301477F1C7D00B4FBF5F7E6
:10204000076002E0124F076000BF00BF0F4F3F68FC
:1020500007F0F0010909104F7A5C0768D740476024
:102060000A4F3F6807F4E051890A0B4F7A5C4768D2
:10207000D7408760054F3F6807F46041490B064F22
:102080007A5C4768D740C760F0BD0000083802405E
:102090000024F40000127A003C00002070B50025F6
:1020A000002427E000BF4FF400711448FFF7D1F877
:1020B0000028F8D02820FEF717FE4FF400710F48D3
:1020C000FFF7C7F801280ED100BF4FF400710B488D
:1020D000FFF7BFF80128F8D0C4F1070101208840BC
:1020E000C0B2054304E0C4F10701012088408543E4
:1020F000601CC4B2082CD5DB284670BD0018024015
:1021000070B50446FEF77AFD4FF400713148FFF7D1
:10211000A9F844F62060FEF7E7FD4FF400712D4862
:10212000FFF7A2F81E20FEF7DFFDFEF755FD4FF486
:1021300000712848FFF78DF8002849D1002509E0F3
:10214000681C85B2B5F57A7F01DD002070BD0A20DC
:10215000FEF7CAFD4FF400711E48FFF77AF8002819
:10216000EED0002509E0681C85B2B5F57A7F01DD67
:102170000020EBE70A20FEF7B7FD4FF40071154889
:10218000FFF767F80128EED0FFF788FF2070FFF710
:1021900085FF6070FFF782FFA070FFF77FFFE070A0
:1021A000FFF77CFF2071FEF729FD4FF4007109480D
:1021B000FFF75AF8207861780844A1780844E1785C
:1021C00008442179884201D10120BFE70020BDE702
:1021D0000020BBE700180240704700000CB500204B
:1021E000019000903448006840F480303249086023
:1021F00000BF3148006800F4003000900198401C96
:102200000190009818B90198B0F5A04FF1D12A4873
:10221000006800F4003010B10120009001E00020BF
:1022200000900098012846D123484030006840F0D3
:1022300080502149403108602048006840F4404007
:102240001E4908601C48083000681B4908310860B6
:102250000846006840F4004008600846006840F402
:10226000A05008601648091F0860081F006840F069
:102270008070091F086000BF0F48006800F0007000
:102280000028F9D040F205700E4908600A4808306D
:10229000006820F00300084908310860084600681B
:1022A00040F00200086000BF03480830006800F0FA
:1022B0000C000828F8D10CBD003802400070004026
:1022C00008544007003C024010B500F03DF910BD35
:1022D00030B515480068154AB0FBF2F1481EB0F160
:1022E000807F01D301201BE0481E4FF0E0225061A7
:1022F00050170F22002807DA13071D0E0C4B00F0B1
:102300000F04241F1D5503E013071C0E094B1C541A
:1023100000BF00204FF0E0229061072010610020F4
:1023200008B100BFFEE730BD2800002040420F008A
:1023300018ED00E000E400E010B51548006840F436
:102340007000134908601348006840F0010011490B
:10235000086000200F49083108600E4800680E49E7
:1023600008400C4908600D48091D0860081F0068F6
:1023700020F48020091F0860002006490C31086005
:10238000FFF72CFF4FF0006001498039086010BD55
:1023900088ED00E000380240FFFFF6FE1030002418
:1023A00010B501210A4800F032F801280ED10121B0
:1023B000074800F01DF807480068401C0549086000
:1023C000084600680A2801D10020086010BD0000FE
:1023D000001000401800002021B1028842F0800265
:1023E000028004E002884FF67F731A400280704733
:1023F000CA430282704721B1028842F00102028082
:1024000004E002884FF6FE731A400280704730B530
:102410000246002000230024158A05EA010395895D
:1024200005EA010413B10CB1012000E0002030BD29
:1024300070B5002400220023058C4FF6FE7635404F
:102440000584028C8388048B4FF68F752C40B51E53
:102450002C400D882C43751E2A408D892A434D88B7
:102460002A43104DA84202D00F4DA84213D14FF677
:10247000F7752A40CD892A434FF6FB752A408D888F
:102480002A434FF6FF652B404FF6FF552B400D8A30
:102490002B434D8A2B43838004838D6845630284DC
:1024A00070BD000000000140000401400A46002108
:1024B000018B4FF6F7731940114301837047416355
:1024C0007047000000220288184B98420ED0184B2B
:1024D00098420BD0B0F1804F08D0164B984205D0EF
:1024E000154B984202D0154B984204D14FF68F738A
:1024F0001A404B881A43124B984207D0114B98420E
:1025000004D04FF6FF431A400B891A4302804B68F0
:10251000C3620B880385054B984202D0044B984256
:1025200001D18B7A0386012383827047000001402A
:10253000000401400004004000080040000C00407E
:1025400000100040001400400448006820B1034817
:102550000068401E01490860704700004C000020E0
:1025600010B588B0044601210846FFF7F3FC0121AD
:102570001020FFF70FFD4FF40070069002208DF839
:102580001C0000208DF81E0001208DF81F00032084
:102590008DF81D0006A92048FEF7F0FD4FF480607D
:1025A000069002208DF81C0006A91B48FEF7E6FDE8
:1025B000072209211848FEF729FE07220A2116489A
:1025C000FEF724FE02940020ADF81000ADF80C00D8
:1025D000ADF80E00ADF814000C20ADF8120002A901
:1025E0000E4800F009FA012240F225510B4800F094
:1025F000DDF925208DF8040001208DF807008DF805
:1026000005008DF8060001A8FFF7D2FA0121034862
:1026100000F089F908B010BD000002400010014030
:1026200010B588B0044601214804FFF7A3FC01213E
:102630000846FFF78FFC072202212248FEF7E6FD3D
:10264000072203211F48FEF7E1FD02208DF81C0040
:1026500000208DF81E000C20069001208DF81F0030
:1026600003208DF81D0006A91648FEF787FD029489
:102670000020ADF814000C20ADF812000020ADF8D9
:102680001000ADF80E00ADF80C0002A90E4800F0E5
:10269000B3F926208DF8040001208DF807008DF88D
:1026A00005008DF8060001A8FFF782FA012240F22A
:1026B0002551054800F07AF90121034800F033F96B
:1026C00008B010BD000002400044004010B588B0C2
:1026D000044601210220FFF73DFC01218804FFF799
:1026E00049FC07220A212548FEF790FD07220B210D
:1026F0002248FEF78BFD02208DF8080003208DF89C
:10270000090000208DF80A0001208DF80B008002DE
:10271000019001A91948FEF731FD4FF400600190C6
:1027200001A91648FEF72AFD04940020ADF8140014
:10273000ADF81600ADF81800ADF81C000C20ADF88F
:102740001A0004A90E4800F057F927208DF80C0054
:1027500001208DF80D008DF80E008DF80F0003A8F4
:10276000FFF726FA0121064800F0DDF8012240F2C9
:102770002551034800F01AF908B010BD00040240CA
:102780000048004010B540F225511F4800F0E4F821
:10279000012813D140F225511B4800F0B5F81A4822
:1027A00000F094F919490870084601781848027831
:1027B0000078401C164B1870164881541348007856
:1027C000412804D14FF400611348FEF74FFD104833
:1027D0000078401E0F49085C2E280FD10FA10D482C
:1027E000FDF741FD20B94FF400610B48FEF73EFDB7
:1027F000002007490870074800210170034801784C
:10280000014800F068F910BD0010014000000020F0
:102810000100002064000020001C024068656C6C10
:102820006F2E000010B540F225510D4800F094F8CD
:10283000012813D140F22551094800F065F80848F5
:1028400000F044F9074908700748027807A10D48CD
:1028500000F094F90B490C4800F06AF910BD000033
:10286000004400400200002000000020B4AEBFDAA7
:1028700032B3C9B9A6B7A2CBCDCAFDBEDD25630D63
:102880000A000000640200200010014010B540F270
:102890002551164800F060F8F8B1144800F016F918
:1028A000134908701148001D0088C1B21148027810
:1028B0000078401C0F4B18700F4881540C48017869
:1028C0000E4802780078401C0C4B18700C4881545C
:1028D00040F22551054800F017F80748FFF70AF8BD
:1028E00003480178074800F0F6F810BD00480040A2
:1028F0005800002051000020640D00205B000020E3
:10290000640F00200010014010B50022002340F6A3
:102910006A14A14200D100BF0A1201249440A3B25C
:10292000DC43048010BD21B1828942F400528281CF
:1029300004E082894DF6FF731A4082817047024697
:102940000020B1F5007F00D100BF13880B400BB110
:10295000012000E00020704770B5024600240023EB
:102960000025002040F66A16B14200D100BFC1F335
:10297000421501F01F03012606FA03F3012D02D1CF
:102980009689334006E0022D02D1168A334001E0D9
:10299000968A33400C12012606FA04F41688344055
:1029A00013B10CB1012000E0002070BDF0B503466A
:1029B000002400260025002040F66A17B94200D105
:1029C00000BF1846C1F3421401F01F06012707FAA1
:1029D00006F5012C01D10C3004E0022C01D110309D
:1029E00000E014301AB107682F43076002E007685F
:1029F000AF430760F0BD00002DE9FF4705460E46D6
:102A00000024A14600BFA046B08900B100BF2C8AB7
:102A100024F44054F08804432C82AC8941F20C60C9
:102A20008443B08831890843718908430443AC81E9
:102A3000AC8A24F44074B0890443AC826846FFF742
:102A4000B9FA2048854202D01F48854202D1DDF8FC
:102A50000C9001E0DDF80890A88900F4004040B136
:102A600009EBC90000EB091031684900B0FBF1F730
:102A700007E009EBC90000EB091031688900B0FBE1
:102A8000F1F76420B7FBF0F004012009642101FB99
:102A90001078A88900F4004040B1322000EBC80053
:102AA000B0FBF1F000F00700044308E0322000EB37
:102AB00008106421B0FBF1F000F00F0004432C81FA
:102AC000BDE8FF87001001400014014001468888DE
:102AD000C0F308007047C1F308028280704700BF4E
:102AE000FEE72DE9F04107460D461646002405E0B5
:102AF000295D384600F00DF8601C84B2B442F7DB63
:102B000000BF40213846FFF71AFF0028F9D0BDE882
:102B1000F08170B504460D4629462046FFF7DBFFDD
:102B200000BF80212046FFF70AFF0028F9D070BDC2
:102B300070B506460C46002500BF615D3046FFF7C4
:102B4000E8FF6D1C605D0028F7D100BF40213046D2
:102B5000FFF7F5FE0028F9D070BD00000FB4054B5B
:102B600010B503A9044A029800F0EEF810BC5DF815
:102B700014FB000009390008600000200FB4084B66
:102B800010B504A902AA039800F0DEF8044602A9D1
:102B9000002000F070FC204610BC5DF814FB000023
:102BA0007734000802E008C8121F08C1002AFAD1D1
:102BB00070477047002001E001C1121F002AFBD1BD
:102BC000704700002DE9FF5F82B00021DDE904308D
:102BD000020DDDF840B0034318D044F61050A2F2C5
:102BE000FF3242431514119801281FD0A5EB0B00AA
:102BF000401C5FEA000A4FF000064E4FDFF83891A4
:102C0000B046504615D5CAF1000413E011980124CE
:102C10004AA3012801D16FEA0B010298119AC0E979
:102C20000031C0E9024206B0BDE8F09FCBF10000E0
:102C3000DFE704460021404A491842EB0450CDE941
:102C4000001012E0E00707D032463B4640464946B6
:102C5000FDF7CDFB8046894632463B461046194675
:102C6000FDF7C5FB06460F466410002CEAD1DDE9EE
:102C70000401DDE90023BAF1000F06DAFDF7B7FB26
:102C800042464B46FDF7B3FB05E0FDF722FC42460A
:102C90004B46FDF71EFC04460E460022284BFDF76E
:102CA000D7FD03D84FF0FF30014607E00022254B47
:102CB00020463146FDF7F4FAFDF7B2FD102409E095
:102CC000002C0ADB0A220023FDF7C4FC039B3032F0
:102CD0001A55641E50EA0102F2D1641C039AC4F131
:102CE00011031444119A012A03D0012208430DD183
:102CF0000AE0084304D000204FF0110B119072E756
:102D0000A3EB0B056D1E0DE05B4504DD4FF00002EB
:102D100005F1010504E003DA4FF00002A5F1010519
:102D2000002AECD002981199C0E90231C0E90045AF
:102D300079E70000000014400000F03F3000000080
:102D40000000F0430000E03F2DE9FF4F95B09B46A7
:102D50008946064600250FE2252877D1002427461C
:102D6000F84A0121059400E0044316F8013F203B96
:102D700001FA03F01042F7D130782A2811D06FF011
:102D80002F033078A0F13002092A16D8059A44F0B2
:102D9000020402EB820203EB42021044761C05900F
:102DA000EFE759F8042B0592002A03DA504244F465
:102DB0000054059044F00204761C30782E2816D179
:102DC00016F8010F44F004042A280DD06FF02F02EA
:102DD0003078A0F13003092B09D807EB870302EB09
:102DE0004303C718761CF3E759F8047B761C307848
:102DF0006C280FD006DC4C2817D068280DD06A2824
:102E000014D104E0742810D07A280FD10DE044F4D6
:102E100000140AE044F4801401E044F44014727891
:102E2000824202D104F58014761C761C3078662824
:102E30000BD013DC582877D009DC002875D0452842
:102E4000F6D04628F4D047281AD19DE118E063282F
:102E500035D0642879D0652812D195E1702873D0D7
:102E600008DC6728F1D069286FD06E280DD06F2854
:102E700006D1B5E073282CD0752875D0782874D089
:102E80005A46179990476D1C75E1C4F30250022809
:102E900009D003280DD0D9F8001004280DD00D60FA
:102EA00009F1040967E1D9F80010EA17C1E90052F5
:102EB000F6E7D9F800100D80F2E70D70F0E719F889
:102EC000041B8DF8001000208DF80100EA46012057
:102ED00003E059F804AB4FF0FF3061074FF00001F9
:102EE00002D40DE008F101018846B9420FDA8045AD
:102EF000F8DB1AF808100029F4D108E008F1010104
:102F000088468142FADB1AF808100029F6D10598A4
:102F10005B46A0EB080721463846179A00F094FA62
:102F2000284400EB080507E04DE029E10DE01AF820
:102F3000010B5A4617999047B8F10108F7D25B4642
:102F400021463846179A13E142E00A220092C4F360
:102F500002524FF0000A022A08D059F804CB032A83
:102F60004FEAEC710AD00DE029E02AE009F10701EF
:102F700021F00702F2E802C1914609E00FFA8CFC49
:102F80004FEAEC71042A03D14FFA8CFC4FEAEC7142
:102F9000002907DA0A460021DCF1000C61EB02018E
:102FA0002D2202E0220504D52B228DF804200122D7
:102FB00003E0E20701D02022F7E7904659E00A211A
:102FC00002E010220DE010214FF0000A00910BE00A
:102FD00010224FF0000A44F004040827009203E096
:102FE00008224FF0000A0092C4F30252022A05D0D0
:102FF00059F804CB0021032A08D009E009F10701A0
:1030000021F00702F2E802C1914605E01FFA8CFCAC
:10301000042A01D10CF0FF0C4FF00008220728D53C
:10302000702806D0009B83F0100353EA0A0305D0F2
:103030000EE040228DF80420012208E05CEA010243
:1030400006D030228DF804208DF80500022290462B
:10305000009B83F0080353EA0A030AD15CEA0102E9
:1030600001D1620705D530228DF804204FF0010808
:103070007F1E582804D034A003900EA802900DE0C3
:1030800036A0F9E753466046009AFDF7E3FA844616
:103090000398825C0298401E029002705CEA010074
:1030A000F0D1029806A9081A00F1200A600702D59B
:1030B00024F4803400E00127574502DDA7EB0A0025
:1030C00000E0002000EB0A01009005984144401AFE
:1030D0000590E00306D45B462146179A059800F058
:1030E000B3F90544002706E001A85A46C05D1799C8
:1030F00090476D1C7F1C4745F6DBE0030CD55B4613
:103100002146179A059800F09FF9054404E0302005
:103110005A46179990476D1C0099481E0090002947
:10312000F5DC08E0029802995A460078491C0291A1
:10313000179990476D1CBAF10001AAF1010AF1DC60
:1031400065E100000928010030313233343536376B
:1031500038396162636465660000000030313233E3
:103160003435363738394142434445460000000083
:1031700000F058F90544761C307800287FF4ECAD57
:1031800019B02846BDE8F08F620700D4062709F180
:10319000070222F0070CFCE80223E14603F0004896
:1031A0005FEA080C02D00FF2702C0DE05FEA045CBD
:1031B00002D50FF2682C07E05FEAC47C02D00FF260
:1031C000602C01E0AFF2700C4FF0FF3823F00043A9
:1031D000CDF850C065280CD006DC452809D046281B
:1031E0001DD047283DD13DE0662818D067287ED104
:1031F00038E00021112F01DB112000E0781CCDE91F
:10320000000106A90EA8FFF7DDFCDDE90F010E9A0B
:1032100003910021009207F1010A04914DE04FF063
:1032200000400097CDE9011006A90EA8FFF7CAFCDF
:10323000DDE90F0203920E9B11990022DDF80CA02C
:103240000093049211B9791C00EB010AB7EB0A0054
:1032500004D4C0F1FF3007F1010A0490AAEB070083
:10326000019044E0012F00DA01270021112F01DD38
:10327000112000E03846CDE9000106A90EA8FFF7AD
:10328000A1FCDDE90F010E9A039100210491009247
:10329000BA4621070CD40399514500DA8A46BAF19F
:1032A000010F05DD009AAAF10101515C302908D017
:1032B000B84202DA10F1040F06DA0121CDE901105B
:1032C00015E0AAF10101E9E7002805DC04990144B1
:1032D0000491AAEB000102E0411C514500DD8A4641
:1032E0000499401A401C01904FF0004002902007C2
:1032F00004D40198504501DBCDF8048000208DF8FE
:103300004F0002980DF14F07B0F1004F25D02B2050
:103310000E9002984FF0020800280CDA404202900A
:103320002D200E9007E00A210298FDF77DF930313B
:10333000029007F8011DB8F10001A8F10108F2DCC4
:1033400002980028EFD1791E0E980870307800F0AE
:10335000200040F0450007F8020D12A8C01B00F144
:1033600007081498007800B1012000EB0A010198C9
:1033700001EBE07105984144401A401E0590E003BE
:1033800006D45B462146179A059800F05DF805447F
:103390001498007818B15A46179990476D1CE003AD
:1033A00024D55B462146179A059800F04DF8054450
:1033B0001CE00498002807DBDDE90301884203DDF7
:1033C0000098405C179901E0179930205A469047C1
:1033D000049805F10105401C04900198401E0190DD
:1033E00004D12E205A46179990476D1CBAF100015E
:1033F000AAF1010ADDDC05E017F8010B5A4617991E
:1034000090476D1CB8F10001A8F10108F4DC5B469F
:103410002146179A0598ABE62D0000002B0000000E
:10342000200000002DE9F041044600251E46174605
:10343000880404D405E039462020B0476D1C641E82
:10344000F9D52846BDE8F0812DE9F0410446002574
:103450001E469046C80301D5302700E02027880487
:1034600004D505E041463846B0476D1C641EF9D5C9
:103470002846BDE8F0810A68531C0B601070704745
:1034800070B5D0B000240025322243A9484800F08E
:10349000DBF943A947A0FFF761FB43A8FCF7DCFE7B
:1034A0000646002004E043A9095C41EA0424401CCC
:1034B000B042F8D3214643A0FFF750FB0A2240A9AF
:1034C0003B4800F05BF940A93FA0FFF747FB3222E1
:1034D00033A9374800F0ECF833A940A0FFF73EFBD2
:1034E0009DF80C419DF80D51214636A0FFF736FBA3
:1034F000E62C08D13DA0FFF731FB41A20021084690
:10350000FEF712FC36E024F07F40E52808D13FA00A
:10351000FFF724FB43A200210846FEF705FC29E043
:1035200024F07F40E92808D142A0FFF717FB46A20C
:1035300000210846FEF7F8FB1CE025F07F409828A4
:1035400008D13CA0FFF70AFB42A200210846FEF783
:10355000EBFB0FE025F07F409B2808D135A0FFF75B
:10356000FDFA40A200210846FEF7DEFB02E041A082
:10357000FFF7F4FA43A94648FFF7DAFA40A94448AE
:10358000FFF7D6FA33A94248FFF7D2FA43AA41A17E
:103590001AA8FFF7F3FA40AA41A101A8FFF7EEFA33
:1035A00001AA10210020FEF7BFFB50B070BD000043
:1035B000640F0020576561746865723A2025730AAC
:1035C0000000000025580A0054656D706572617432
:1035D0007572653A2025730A0000000048756D6910
:1035E000646974793A2025730A00000054686520E4
:1035F000776561746865722069733A20C7E70A00CD
:10360000C9F2D1F4CCECC6F83AC7E700546865209B
:10361000776561746865722069733A20B6E0D4C634
:103620000A000000C9F2D1F4CCECC6F83AB6E0D4F6
:10363000C600000054686520776561746865722073
:1036400069733A20D2F50A00C9F2D1F4CCECC6F87D
:103650003AD2F500C9F2D1F4CCECC6F83AD5F3D39E
:10366000EA000000C9F2D1F4CCECC6F83AC0D7D5D4
:10367000F3D3EA00556E6B6E6F776E2077656174D9
:1036800068657220636F6E646974696F6E2E0A00DC
:1036900000440040C9F2D1F4CCECC6F83A257300DE
:1036A000CAD2CDE2CEC2B6C83A257320A1E6000048
:1036B0002DE9F04782460F4690460FF254094946DD
:1036C0005046FCF7A1FD044624B916A0FFF746FAC0
:1036D000BDE8F0874846FCF7BFFD044422212046A0
:1036E000FCF7B0FD05461DB915A0FFF737FAEFE767
:1036F0002E1B464503D31AA0FFF730FAE8E73246FF
:1037000021463846FCF792FD0020B85500BFDFE7A0
:103710002268756D69646974795F666C6F61742283
:103720003A22000048756D6964697479206B657987
:10373000206E6F7420666F756E642E0A00000000A4
:1037400048756D69646974792076616C756520656A
:103750006E64206E6F7420666F756E642E0A0000B2
:103760004275666665722073697A65206973207494
:103770006F6F20736D616C6C2E0A00002DE9F047AD
:1037800082460F4690460FF2540949465046FCF7D0
:103790003BFD044624B915A0FFF7E0F9BDE8F0872A
:1037A0004846FCF759FD044422212046FCF74AFD17
:1037B00005461DB914A0FFF7D1F9EFE72E1B4645CA
:1037C00003D31AA0FFF7CAF9E8E732462146384684
:1037D000FCF72CFD0020B85500BFDFE72274656DB3
:1037E0007065726174757265223A220054656D705D
:1037F00065726174757265206B6579206E6F7420D7
:10380000666F756E642E0A0054656D706572617422
:103810007572652076616C756520656E64206E6FCB
:103820007420666F756E642E0A000000427566662D
:1038300065722073697A6520697320746F6F2073D5
:103840006D616C6C2E0A00002DE9F04782460F4630
:1038500090460FF2540949465046FCF7D5FC044601
:1038600024B914A0FFF77AF9BDE8F0874846FCF7C1
:10387000F3FC044422212046FCF7E4FC05461DB974
:1038800012A0FFF76BF9EFE72E1B464503D317A0F5
:10389000FFF764F9E8E7324621463846FCF7C6FCF4
:1038A0000020B85500BFDFE7227765617468657254
:1038B000223A220057656174686572206B65792031
:1038C0006E6F7420666F756E642E0A0057656174A2
:1038D0006865722076616C756520656E64206E6F18
:1038E0007420666F756E642E0A000000427566666D
:1038F00065722073697A6520697320746F6F207315
:103900006D616C6C2E0A000070B504460D46E1B284
:103910000548FFF7E0F800BF80210348FFF70FF8E4
:103920000028F9D0204670BD0010014070B5A4B049
:10393000054690220D496846FCF742FC002410E041
:103940005DF82400FCF788FC06465DF8241032463A
:103950002846FCF796FC10B9204624B070BD601CC8
:10396000C4B2242CECD3FF20F7E70000DC470008AA
:1039700000B52DED088B8FB04048FEF7C1FB012844
:1039800066D13E494878FCF713FE41EC1B0B9FEDD6
:103990003C0B53EC102BFCF79CFD41EC190B374909
:1039A0000878FCF705FE41EC1A0B53EC192BFCF7D9
:1039B00077FC41EC180BFCF71BFE0D902F49C878E3
:1039C000FCF7F6FD41EC1B0B9FED2D0B53EC102B80
:1039D000FCF77FFD41EC190B28498878FCF7E8FDDE
:1039E00041EC1A0B53EC192BFCF75AFC41EC180B69
:1039F000FCF7FEFD0E909DED0E0A10EE101A084623
:103A0000FCF7E3FD41EC180B9DED0D0A10EE101ACA
:103A10000846FCF7DAFD41EC190B8DED008B53ECF9
:103A2000192B19A108A8FFF7A9F81D4802781DA1B4
:103A300003A8FFF7A3F8102308AA20210020FEF70F
:103A4000A7F9102303AA30210020FEF7A1F90AE00C
:103A500018A0FFF783F89FED1C0A8DED0D0A9FED6E
:103A60001A0A8DED0E0A1948FDF73EF99DED0D0A73
:103A7000DDED0E0A0FB0BDEC088B00BD0300002089
:103A80000000000000005940483A25302E306625DD
:103A900025524820543A25302E306C66A1E60000AD
:103AA000240000206C696768743A2564204C5558DE
:103AB00000000000526561642044485431312045C3
:103AC00052524F52210D0A000000000040420F00E8
:103AD00010B5002406E0601C84B2B4F5487F01DD17
:103AE000FE2010BD03490448FDF73CFC0128F2D13B
:103AF0000020F6E7840007000054004000B587B0BE
:103B00001C48006898BB01210220FEF723FA01211E
:103B10004805FEF72FFA02208DF8180001208DF8D5
:103B20001A004FF44070059000208DF81B008DF8AE
:103B3000190005A91048FDF721FB042208210E48B1
:103B4000FDF764FB042209210B48FDF75FFB01A888
:103B5000FDF7C0FC0948019001A90948FDF73CFCAC
:103B600001210748FDF713FC01200249086007B056
:103B700000BD00000800002000040240801A06007A
:103B80000054004010B5044621460248FDF7A0FC51
:103B900010BD00000054004070B5044600250E4ED4
:103BA00004F0010221460D48FDF78AFC04F00100F3
:103BB00000B10B4E07E0681C85B2B5F5FA6F02DD67
:103BC0004FF0FF3070BD31460448FDF7CBFB0128B4
:103BD000F1D10020F6E70000820007000054004009
:103BE0000200030010B5002401210A48FDF7DBFBA9
:103BF00007E0601C84B2B4F5FA6F02DD4FF0FF30CD
:103C000010BD05490348FDF7ADFB0128F1D10020A7
:103C1000F6E70000005400400100030010B5012148
:103C20000148FDF7CCFB10BD005400402DED048B86
:103C300084B0FDF75FFCFDF771FCFEF737F9FCF788
:103C400041FE4FF4E130FEF78BFC4FF4E130FEF71C
:103C5000E7FC4FF4E130FEF739FDFEF739FBFCF7E6
:103C6000A5FFFCF77BFFFCF78DFF00F077F800F075
:103C700095F82448FDF738F800F0E6F8FFF700FC67
:103C8000FDF78CF83CE0FDF769FCFCF7E1FFFCF781
:103C9000C3FEFFF76DFE8DED020ACDED030A9DED2B
:103CA000021AF0EE410A9DED031AB0EE410AFDF74B
:103CB00077FD1448FDF718F813A0FEF74FFF9DEDB0
:103CC000020A10EE101A0846FCF77FFC41EC180BB4
:103CD0009DED030A10EE101A0846FCF776FC41EC45
:103CE000190B8DED008B53EC192B0EA0FEF736FF50
:103CF00013A0FEF733FF18A0FEF730FFFDF704FA1C
:103D0000C1E7000020A107004D515454B7A2B2BC36
:103D1000CAFDBEDDB3C9B9A6A3A1A3A1A3A10D0A83
:103D20000000000074656D703A25302E326C6620FC
:103D30002C2068756D693A25302E326C660D0A00AC
:103D400053656E64204461746120546F2053455262
:103D50005645523A000000000D0A000000B587B039
:103D60001C2207A16846FCF72BFAFFF7C7FE0022CA
:103D70001C216846FEF736F8FDF756FF07B000BD78
:103D8000AE00104081CFA1C8A6A83FD300D580D9EE
:103D9000F1DA12DB4020008D14A4A6AF10B514A0F8
:103DA000FEF7DCFEFDF77EFEFDF7EAFC16A0FEF74F
:103DB000D5FE1BA0FEF7D2FE1A48FCF795FF00BF08
:103DC00019A11AA0FDF744F90028F9D11848FCF709
:103DD0008BFF18A0FEF7C2FE00BF18A118A0FDF7C8
:103DE00037F90028F9D11248FCF77EFF10BD00001A
:103DF00052657374617274696E672045535038322E
:103E000036362E2E2E0A00004D515454B6CFBFAA7E
:103E1000B7FECEF1C6F7B3C9B9A6A3A1A3A1A3A1CA
:103E20000D0A0000400D0300000000002B2B2B00AA
:103E300020A107004154200D0A0000004F4B000054
:103E400041540D0A0000000010B5FDF741F902E0F1
:103E500032A0FEF783FE39A139A0FDF7F9F800285A
:103E6000F6D102E038A0FEF779FE34A140A0FDF7BC
:103E7000EFF80028F6D105E042A0FEF76FFE4C48AF
:103E8000FCF732FF2DA14BA0FDF7E2F80028F3D19B
:103E900002E051A0FEF762FE28A15AA0FDF7D8F873
:103EA0000028F6D102E05CA0FEF758FE67A169A0E9
:103EB000FDF7CEF80028F6D102E071A0FEF74EFE25
:103EC0001EA17EA0FDF7C4F80028F6D102E07FA075
:103ED000FEF744FE89A18AA0FDF7BAF80028F6D1C2
:103EE00018A18B48FDF7B4F844F62060FCF7FCFEFF
:103EF00088A0FEF733FEFCF73FFF9148FCF7F4FE85
:103F000002E090A0FEF72AFE0CA10DA0FDF7A0F89C
:103F10000028F6D195A0FEF721FE10BD4154206384
:103F20006F6D6D616E64206661696C65642C2072D2
:103F300065747279696E672E2E2E0A004F4B000051
:103F400041540D0A000000004661696C65642074EC
:103F50006F207365742057692D4669206D6F646505
:103F60002C207265747279696E672E2E2E0A0000FD
:103F700041542B43574D4F44455F4445463D310D19
:103F80000A0000004661696C656420746F20636FED
:103F90006E6E65637420746F2057692D46692C20FE
:103FA0007265747279696E672E2E2E0A0000000009
:103FB00080841E0041542B43574A41503D226B7967
:103FC000726965222C2235313532327A7A776C77F4
:103FD0006C6262220D0A00004661696C656420749F
:103FE0006F20736574204175746F20436F6E6E652A
:103FF00063742C207265747279696E672E2E2E0A96
:104000000000000041542B43574155544F434F4E3D
:104010004E3D310D0A0000004661696C65642074F4
:104020006F2065737461626C69736820544350201B
:10403000636F6E6E656374696F6E2C207265747247
:1040400079696E672E2E2E0A00000000434F4E4EF7
:104050004543540041542B43495053544152543D1D
:1040600022544350222C22726573746170692E6150
:104070006D61702E636F6D222C38300D0A000000C8
:104080004661696C656420746F2073657420547296
:10409000616E73706172656E74205472616E736DBF
:1040A000697373696F6E206D6F64652C207265741F
:1040B0007279696E672E2E2E0A00000041542B4340
:1040C00049504D4F44453D310D0A00004661696C31
:1040D000656420746F20737461727420646174610C
:1040E000207472616E736D697373696F6E2C2072C8
:1040F00065747279696E672E2E2E0A003E000000EC
:1041000041542B43495053454E440D0A00000000D2
:10411000A065000845786974696E67205472616E05
:1041200073706172656E74205472616E736D697321
:1041300073696F6E206D6F64652E2E2E0A0000006D
:1041400020A1070046696E616C20415420636F6DA9
:104150006D616E64206661696C65642C20726574A3
:104160007279696E672E2E2E0A000000415420637A
:104170006F6D6D616E642073657175656E6365202A
:10418000636F6D706C6574656420737563636573CC
:104190007366756C6C792E0A000000001060028C4A
:1041A00020180808887F88082818080004047E0161
:1041B0008040300C03003F404040700000FE02226F
:1041C000DA0600FC0404040404FC000000FF0810EC
:1041D000080700FF4141414141FF00004040C05FEE
:1041E0005555D5555555555F4040400020603F25F9
:1041F0001515FF904729112D438080000404040405
:10420000F49495969494F4040404040000FE0202CD
:104210007A4A4A4A4A4A7A0282FE0000008060F8DE
:104220000700FC848484FE8283828000010000FFFA
:104230000000FF402000418E3040F80020104C4725
:1042400054545454545454D4040400000000000046
:104250000000000000000F3040F000001060028CF1
:104260000000FE9292929292FE00000004047E01F1
:10427000407E42427E427E42427E4000060909E67E
:10428000F80C040202020202041E000000000007F3
:104290001F302040404040402010000000FC84843B
:1042A000FC00445454547F5454544400003F1010B4
:1042B0003F0000FF15151555957F000000001010F8
:1042C00098A44744A4540C0400000000008189898C
:1042D00044444A3121110905030000004040424294
:1042E0004242C242424242424242404000002070AA
:1042F000282423202020242830E0000000FE022271
:10430000DA0600FE2222222222FE000000FF081010
:104310008847300F02020242827F000002E222221E
:10432000222222FE2222222222E2020000FF00009C
:104330000912007F00091240807F00004040424285
:10434000424242FE4242424242404000808040207F
:10435000100C0300030C1020408080001060028CC1
:1043600020180808887F88082818080004047E019F
:104370008040300C03003F404040700000FE0222AD
:10438000DA0600FC0404040404FC000000FF08102A
:10439000080700FF4141414141FF000040404242C7
:1043A000424242FE4242424242404000808040201F
:1043B000100C0300030C10204080800020104C479C
:1043C00054545454545454D40404000000000000C5
:1043D000000000000000000F3040F000100C24240A
:1043E000A46425262424A42424140C004040484915
:1043F0004949497F4949494B4840400000C0301F66
:104400001010F00000FF20408000000081402112C9
:104410000C03000000FF0000000300001060028C8D
:104420000000FE9292929292FE00000004047E012F
:10443000407E42427E427E42427E40000000FC249A
:104440002424FC252624FC242424040040308F80CE
:10445000844C55252525554C808080001060028CA9
:1044600000FE929292929292FE00000004047E015D
:104470004448507F40407F50484440000000FC24A6
:104480002424FC252624FC242424040040308F808E
:10449000844C55252525554C808080004040C05FC8
:1044A0005555D5555555555F4040400020603F2536
:1044B0001515FF904729112D438080000404040442
:1044C000F49495969494F4040404040000FE02020B
:1044D0007A4A4A4A4A4A7A0282FE0000008060F81C
:1044E0000700FC848484FE8283828000010000FF38
:1044F0000000FF402000418E3040F80000FC848422
:10450000FC00445454547F5454544400003F101051
:104510003F0000FF15151555957F00000000101095
:1045200098A44744A4540C04000000000081898929
:1045300044444A3121110905030000004040424231
:104540004242C24242424242424040000020702861
:104550002423202020242830E000000020180AAA6C
:10456000AAAA0AFE0AAAAAAA0A2818000000FE920D
:10457000929292FE92929292FE00000000FE02221F
:10458000DA0608C8B88FE8888888080000FF081095
:10459000080708080808FF080808080002E22222A5
:1045A000222222FE2222222222E2020000FF00001A
:1045B0000912007F00091240807F00002020202087
:1045C000202020FF2020202020202000808040204C
:1045D000100C0300030C1020408080000000F0103D
:1045E000101010FF10101010F000000000000F0459
:1045F000040404FF040404040F000000000000E0B1
:10460000000000FF000000204080000008040300BC
:104610000040807F0000000000010E0000FE02222A
:10462000DA0600FE2222222222FE000000FF0810ED
:104630008847300F02020242827F0000C8B88FE82C
:104640008888404848E85F4848484000081808FF04
:10465000040400020B1222D20A06000002E2222207
:104660003E00809E9292F292929E8000004382428F
:104670003E40474444447F444454E70004040484D7
:10468000E43C2724242424E404040400040201005C
:10469000FF0909090949897F00000000403C10FF1B
:1046A0001010404848487F48C8484000020602FFB2
:1046B000010100020A1242827F020200100C05551D
:1046C0005555057F0555555505140C000000414909
:1046D0004949494949494949FF000000000808285B
:1046E000480808FF0808482808080000818141415F
:1046F00021110D030D11214141818100100C05553F
:1047000055D5057F0555555505140C001010108A18
:10471000A96B352525ABE90810101000504CA535C4
:10472000D59545DF4555D55545D40C00424A29A5B8
:10473000927C005755557F55555740000000F010AA
:10474000101010FF10101010F000000000000F04F7
:10475000040404FF040404040F0000000000FC240F
:104760002424FC252624FC242424040040308F80AB
:10477000844C55252525554C80808000101014D47C
:10478000545454FC525252D312101000404050570F
:104790005555557F55555557504040000002C24A67
:1047A00052427E42427E42524A42400080601F0096
:1047B000000000000000000000000000060909E6FB
:1047C000F80C040202020202041E000000000007AE
:1047D0001F30204040404040201000008865000805
:1047E000946500087C6500089C6500085465000815
:1047F0006C650008346500083C6500082465000805
:104800003C65000884650008646500084065000890
:104810007465000868650008386500085865000878
:1048200090650008786500088C65000850650008F0
:104830001C650008986500082865000830650008B8
:104840004C6500085C6500082065000848650008A4
:10485000806500082C650008506500083C6500086C
:1048600060650008446500087065000888650008F8
:10487000946500087C6500089C6500085465000884
:104880006C650008346500083C6500082465000874
:104890003C65000884650008646500084065000800
:1048A00074650008686500083865000858650008E8
:1048B00090650008786500088C6500085065000860
:1048C0001C65000898650008286500083065000828
:1048D0004C6500085C650008206500084865000814
:1048E000806500082C650008506500083C650008DC
:1048F000606500084465000800000000000000003A
:1049000000000000000000003F4000000000000028
:1049100000003000400030004000000009000BC0E3
:104920003D000BC03D00090018C024407FE022403C
:1049300031800000180024C01B000D80324001802F
:1049400003801C4027401C8007400040100060008E
:1049500000000000000000000000000000001F80B8
:10496000204040200000402020401F800000000028
:10497000090006001F800600090000000400040072
:104980003F800400040000000010006000000000F0
:104990000000000004000400040004000400000003
:1049A000000000400000000000000000002001C0E6
:1049B00006003800400000001F80204020402040BA
:1049C0001F800000000010403FC0004000000000B9
:1049D00018C0214022402440184000001080204090
:1049E000244024401B80000002000D0011003FC045
:1049F000014000003C8024402440244023800000EB
:104A00001F802440244034400380000030002000F8
:104A100027C03800200000001B8024402440244090
:104A20001B8000001C0022C0224022401F8000008A
:104A3000000000000840000000000000000000002E
:104A40000460000000000000000004000A001100E3
:104A50002080404009000900090009000900000009
:104A600000004040208011000A00040018002000CF
:104A700023402400180000001F80204027402940C8
:104A80001F400000004007C039000F0001C0004077
:104A900020403FC0244024401B8000001F80204055
:104AA000204020403080000020403FC02040204077
:104AB0001F80000020403FC024402E4030C0000036
:104AC00020403FC024402E00300000000F00108026
:104AD000204022403380020020403FC004000400F8
:104AE0003FC02040204020403FC0204020400000E8
:104AF0000060202020203FC02000200020403FC038
:104B000024400B0030C0204020403FC020400040E7
:104B1000004000C03FC03C0003C03C003FC000005C
:104B200020403FC00C4023003FC020001F80204099
:104B3000204020401F80000020403FC0244024002F
:104B4000180000001F802140214020E01FA000002D
:104B500020403FC02440260019C0004018C0244017
:104B60002440224031800000300020403FC02040DF
:104B70003000000020003F80004000403F802000C7
:104B800020003E0001C0070038002000380007C0A8
:104B90003C0007C038000000204039C0060039C082
:104BA000204000002000384007C0384020000000AE
:104BB000304021C02640384020C0000000000000E6
:104BC0007FE0402040200000000070000C000380C7
:104BD000004000000000402040207FE00000000076
:104BE0000000200040002000000000000010001025
:104BF0000010001000100010000000004000000035
:104C000000000000000002800540054003C0004095
:104C100020003FC0044004400380000000000380E7
:104C2000044004400640000000000380044024408B
:104C30003FC00040000003800540054003400000E5
:104C4000000004401FC0244024402000000002E077
:104C5000055005500650042020403FC00440040089
:104C600003C000400000044027C0004000000000D6
:104C700000100010041027E00000000020403FC09A
:104C80000140070004C00440204020403FC00040D5
:104C90000040000007C0040007C0040003C000007B
:104CA000044007C00440040003C00040000003802B
:104CB0000440044003800000041007F00450044046
:104CC00003800000000003800440045007F000103F
:104CD000044007C002400400040000000000064039
:104CE0000540054004C00000000004001F8004408F
:104CF00000400000040007800040044007C000405E
:104D00000400070004C0018006000400060001C082
:104D1000070001C006000000044006C0010006C0F4
:104D2000044000000410071004E0018006000400A5
:104D30000000044005C006400440000000000000E0
:104D400004007BE040200000000000000000FFF0B5
:104D500000000000000040207BE004000000000094
:104D600040008000400020002000400000000000C3
:104D7000000000000000000000000000000000F83B
:104D800000000000000000330000000000100C02D2
:104D9000100C020000000000000000000040C0787D
:104DA00040C0780000043F04043F0400007088887D
:104DB000FC08300000182020FF211E00F008F080C1
:104DC0006018000000310C031E211E0000F008884E
:104DD000700000001E21232C1927211000120E0044
:104DE000000000000000000000000000000000E0E3
:104DF00018040200000000071820400000020418F8
:104E0000E00000000040201807000000404080F053
:104E1000804040000202010F010202000000000079
:104E2000E0000000000101010F010101000000008D
:104E30000000000000907000000000000000000072
:104E4000000000000001010101010100000000005C
:104E500000000000003030000000000000000000F2
:104E6000C0380400006018070000000000E01008CF
:104E70000810E000000F102020100F00000010109C
:104E8000F8000000000020203F20200000700808EB
:104E90000808F000003028242221300000300808E3
:104EA000088870000018202121221C00000080408A
:104EB00030F8000000060524243F242400F88888E8
:104EC000880808000019202020110E0000E010883A
:104ED00088900000000F112020201F0000180808F3
:104EE000886818000000003E01000000007088087B
:104EF00008887000001C222121221C0000F00808F4
:104F00000810E0000001122222110F00000000C072
:104F1000C0000000000000303000000000000080F1
:104F200000000000000000E00000000000008040E1
:104F3000201008000001020408102000004040403A
:104F4000404040000002020202020200000810205D
:104F50004080000000201008040201000070480892
:104F6000088870000000003037000000C030C828FA
:104F7000E810E000071827282F2817000000C03885
:104F8000E0000000203C23020227382008F888882F
:104F900088700000203F202020110E00C03008083B
:104FA00008083800071820202010080008F8080812
:104FB0000810E000203F202020100F0008F888880B
:104FC000E8081000203F20202320180008F88888D7
:104FD000E8081000203F200003000000C03008084F
:104FE0000838000007182020221E020008F80800D8
:104FF0000008F808203F210101213F20000808F89F
:10500000080800000020203F2020000000000808C1
:10501000F8080800C08080807F00000008F888C081
:1050200028180800203F20012638200008F8080032
:1050300000000000203F20202020300008F8F80069
:10504000F8F80800203F013E013F200008F830C07A
:105050000008F808203F200007183F00E01008086B
:105060000810E0000F10202020100F0008F808089A
:105070000808F000203F210101010000E0100808AD
:105080000810E0000F10282830504F0008F88888DA
:1050900088887000203F2000030C302000708808B2
:1050A000080838000038202121221C00180808F8C0
:1050B000080818000000203F2000000008F8080041
:1050C0000008F808001F202020201F000878880012
:1050D00000C83808000007380E01000008F800F882
:1050E00000F8080000033E013E0300000818688035
:1050F0008068180820302C03032C30200838C800A2
:10510000C83808000000203F2000000010080808F0
:10511000C83808002038262120201800000000FE92
:10512000020202000000007F40404000000438C03E
:1051300000000000000000010638C000000202026A
:10514000FE000000004040407F000000000004021C
:105150000204000000000000000000000000000049
:105160000000000080808080808080800002020437
:10517000000000000000000000000000000080802F
:105180008000000000192424123F200010F000804D
:1051900080000000003F112020110E000000008060
:1051A00080800000000E112020201100000080806F
:1051B0008090F000001F202020103F200000808001
:1051C00080800000001F242424241700008080E039
:1051D000909020000020203F2020000000008080D0
:1051E00080808000006B94949493600010F00080A5
:1051F00080800000203F210000203F200080989800
:10520000000000000020203F20200000000000805F
:105210009898000000C08080807F000010F000009F
:1052200080808000203F240629302000001010F8E4
:10523000000000000020203F2020000080808080AF
:1052400080808000203F20003F20003F8080008041
:1052500080800000203F210000203F20000080804F
:1052600080800000001F202020201F008080008000
:105270008000000080FF912020110E0000000080BF
:1052800080008000000E11202091FF80808080002F
:105290008080800020203F212000010000008080CD
:1052A000808080000033242424241900008080E0C2
:1052B000808000000000001F20201000808000007F
:1052C00000808000001F202020103F208080800070
:1052D0008080800000030C300C0300008080008080
:1052E00080008080010E300C07380601008080802D
:1052F000008080000020310E2E3120008080800050
:1053000000808080008186781806010000808080FF
:10531000808080000021302C22213000000000001D
:1053200000FC020200000000013E404000000000BE
:10533000FF00000000000000FF0000000202FC006F
:105340000000000040403E01000000000002010299
:105350000204020000000000000000000000000045
:10536000000000000000000000000000000000003D
:10537000000000000000000000000000000000002D
:105380000000000000000000000000000000000F0E
:1053900080380FFE380F8038000000000000000049
:1053A00000000000000000000000010000060000F6
:1053B0000C00003800003100000600000C0000382E
:1053C0000000300000000000000000006180006765
:1053D000F807F980006180006180006180006180D1
:1053E0000067F807F98000618000000000000000FD
:1053F000000001C0E003E0F00630080418081FFFB9
:10540000FE040E080787F00381E0000000000000A2
:1054100001F000060C00040408060C7001F9C0003D
:105420000E00003BE000EC18070808040C1800030D
:10543000E00000000001E00007F003F818041C0879
:1054400004170807E1D003C0E00023B0003C0800C7
:1054500020080000100000000000000100003100E2
:10546000003200001C0000000000000000000000EE
:10547000000000000000000000000000000000002C
:105480000000000000000000000000007F0001FF9D
:10549000C00780F00C00181000042000020000007B
:1054A0000000002000021000040C00180780F0012A
:1054B000FFC0007F000000000000000000000000AE
:1054C00000000000000000004200006600006600CE
:1054D000003C0000180003FFC0001800003C000062
:1054E000660000660000420000000000080000089E
:1054F0000000080000080000080001FFC0000800CC
:10550000000800000800000800000800000000007B
:10551000000100003100003200001C00000000000B
:10552000000000000000000000000000000000007B
:10553000000000000800000800000800000800004B
:10554000080000080000080000080000080000082B
:1055500000000000000000000000000038000038DB
:105560000000380000000000000000000000000003
:105570000000000000000000000000000006000025
:105580001C000070000180000E0000380000C00008
:105590000700001C000030000000000000000000B8
:1055A0007F8001FFE00380700600180400080400FB
:1055B0000806001803807001FFE0007F80000000F3
:1055C00000000000000001000801000801000803BD
:1055D000FFF807FFF80000080000080000080000BE
:1055E0000000000000000001C03802C0580400980C
:1055F000040118040218040418061C1803F8180102
:10560000E0F800000000000000000001C0E003C05E
:10561000F004000804080804080806180803F41831
:1056200001E7F00001E000000000000000000000C1
:105630000300000D0000110000610000810803015B
:105640000807FFF80FFFF80001080001080000003C
:105650000000000000E007FCD0060808061008065D
:105660001008061008061838060FF00607C00000DC
:1056700000000000000000003F8001FFE0038430D4
:105680000208180410080410080410080718100372
:105690000FF00007C000000000000000000003C081
:1056A000000700000600000600F80607F8061800CC
:1056B00006E00007000006000000000000000001F6
:1056C000E1E003F7F0063410041808041808040C8D
:1056D00008040C0806161803F3F001C1E0000000EE
:1056E00000000000F80003FC300306380402080440
:1056F00002080402080404100308F001FFC0007F40
:105700000000000000000000000000000000000099
:105710000000000070380070380070380000000091
:105720000000000000000000000000000000000079
:105730000000000000000000301A00301C000000D3
:105740000000000000000000000000000000000059
:10575000000000080000140000220000410000804A
:105760008001004002002004001008000800000032
:1057700000000000210000210000210000210000A5
:105780002100002100002100002100002100002153
:1057900000000000000000000000080008040010E5
:1057A0000200200100400080800041000022000033
:1057B000140000080000000000000003C00004C046
:1057C00000040000080038080F38080838081000E6
:1057D0000C300007E00003C00000000000000000E3
:1057E0003F8000FFE0038070020F1006708804C045
:1057F00088048308047F8802C09003012000FE40D3
:105800000000080000180001F8003E0801C200076F
:10581000020007E20000FE00001FC80001F80000BF
:105820003800000804000807FFF807FFF80408081C
:1058300004080804080804080806180803F41801F6
:10584000E7F00001E0000000000000003F8001FFE1
:10585000E003807002001804000804000804000837
:105860000400100600200780C000000004000807A4
:10587000FFF807FFF804000804000804000804000B
:105880001802001003807001FFE0007F800000001C
:1058900004000807FFF807FFF804080804080804D4
:1058A0000808040808043E0804000806001801005F
:1058B0006000000004000807FFF807FFF80408086C
:1058C000040800040800040800043E000600000666
:1058D0000000018000000000000000003F8001FF88
:1058E000E00380700600180400080402080402089F
:1058F0000203F00783F00002000002000400080722
:10590000FFF807FFF8040808000800000800000876
:105910000000080004080807FFF807FFF804000863
:10592000000000000000040008040008040008074C
:10593000FFF807FFF804000804000804000800004E
:105940000000000000000000000600000700000149
:1059500004000104000104000307FFFE07FFFC042C
:10596000000004000004000004000807FFF807FF1F
:10597000F8040C08001800003E0004C7800503C8A6
:105980000600F804003804001800000804000807A6
:10599000FFF807FFF80400080000080000080000F6
:1059A0000800000800000800001800006000000067
:1059B00004000807FFF807800807FC00007FC0000C
:1059C00003F80007C000780007800807FFF807FF0A
:1059D000F804000804000807FFF807000803C000E7
:1059E00000E000003800001E000007000001C004B5
:1059F00000F007FFF8040000000000007F8001FFB6
:105A0000E00380700600180400080400080600186F
:105A100003003001FFE0007F800000000400080761
:105A2000FFF807FFF8040408040400040400040459
:105A300000040400060C0003F80001F00000000060
:105A4000000000007F8001FFE003807006008804F2
:105A500000880400C806003C03003E01FFE6007F0A
:105A60008400000004000807FFF807FFF804080896
:105A7000040800040C00040F00040BC00610F0031F
:105A8000F03801E00800000800000001E0F803F031
:105A900030063010041808041808040C08040C0818
:105AA0000206180207F00781E000000001800006EE
:105AB000000004000004000004000807FFF807FFCE
:105AC000F804000804000004000006000001800043
:105AD00004000007FFE007FFF004001800000800C2
